:020000040800F2
:10000000B00B0020C900000895100008E70E00089A
:1000100000000000000000000000000000000000E0
:10002000000000000000000000000000DF100008D9
:100030000000000000000000DD100008E1100008D2
:10004000DB00000800000000DB000008DB00000807
:10005000DB000008DB000008DB000008DB00000814
:1000600000000000DB000008DB0000088901000838
:10007000DB000008DB000008DB00000800000000D7
:10008000DB000008DB00000800000000DB000008C7
:10009000DB000008DB000008DB000008DB000008D4
:1000A000DB000008DB000008DB000008DB000008C4
:1000B000051400080348854600F03CF80048004756
:1000C000511A0008B00B002004488047044800473C
:1000D000FEE7FEE7FEE7FEE7FEE7FEE79D1100080C
:1000E000B500000830B50B4601460020202201244F
:1000F00009E00D46D5409D4205D31D469540491B5C
:100100002546954040191546521E002DF1DC30BDA4
:1001100010B5202A04DB0846203AD040002110BD4B
:100120000B46D340D0402024A21A914008431946E0
:1001300010BD0000064C0125064E05E0E36807CC23
:100140002B430C3C98471034B442F7D3FFF7B6FF6B
:10015000D81A0008F81A000810B5084800210160F4
:10016000074941600121816000F06EFA05490348AA
:1001700000F0D2F900F020FA10BD00004400002089
:1001800000F400081C00002010B5034800F068F9D6
:10019000024800F065F910BD680700202407002020
:1001A00006490020C8610648016904221143016123
:1001B0000169402211430161704700008006002060
:1001C00000200240064A0021D16106490A69022343
:1001D0001A430A6148610869402210430861704768
:1001E000800600200020024010B5054B0022DA6195
:1001F000044A1369012423431361018010BD0000E8
:10020000800600200020024010B50B4A0020D16873
:10021000CB060A4904D5C86902231843C8611020D7
:10022000D3685B0705D5CB6901242343CB61042147
:100230000843D06010BD000000200240800600206E
:1002400070B5054600F0BCFA0646104C0AE0681C82
:1002500008D0002D04D000F0B3FA801BA84201D9C9
:10026000032070BDE068C007F1D1E068800601D5C9
:100270002020E060E068C00602D4E068400703D5B3
:10028000FFF7C2FF012070BD002070BD00200240BA
:1002900000887047F7B50546674882B00E4685422C
:1002A00002D2012005B0F0BD6448654A4469816905
:1002B000614389187200416000925219521E8A42AD
:1002C00001D90220EEE71F21C9066A184260D10752
:1002D00001D00320E6E7594F21461046FFF702FF01
:1002E000786001216043C9064018291A8AB2A11A10
:1002F000F8603A8000244908BC60396182182746BA
:10030000944617E07A00624412884C4B5A804D4B59
:100310009A420ED04C490C6048600120886000F081
:1003200093F9464948481C3100F0F6F800F044F9CA
:1003300002E07F1C8F42E5D3404887600288009925
:10034000891841604069814224D93C498C60C96860
:100350000B1847081AE0394A4100591851600988BA
:100360005180384A91420ED03748012104604360E1
:10037000816000F069F9314933481C3100F0CCF854
:1003800000F01AF906E02D49401C88602B4A90685D
:100390008742E0D8294F3869BC608642204613D98D
:1003A00028E040004019786000F04EF9B86800235A
:1003B00041000498425A0120796800F007F900F0E2
:1003C000FBF8B868401CB860B042EAD331E04000A6
:1003D0004019786000F038F9B868002341000498AB
:1003E000425A0120796800F0F1F800F0E5F8B868A9
:1003F000401CB860B042EAD3BC6015E07A69F96885
:10040000400089180818786000F01EF9B8680023C9
:1004100041000498425A0120796800F0D7F800F0B2
:10042000CBF8B868401CB8603869311AB8688142A6
:10043000E4D8002036E7000000200008000000207B
:10044000FFFFFF07FFFF00004400002001210348D9
:100450008902416140218161704700000000002055
:10046000F0B4C16B0D6801680C680422066C134679
:10047000B3402B420DD063070BD50B689B0602D40B
:100480000B6893430B60016C8A40C16B4A60C16A80
:1004900019E00227B74002462F4001232032002FE7
:1004A00015D0A70713D50C68A40604D40C680A2538
:1004B000AC430C605370036C02219940C36B5960CC
:1004C00000211170816A002916D0F0BC0847082766
:1004D000B7402F4210D024070ED50C680E25AC4330
:1004E0000C60046C1946A140C46B61608363537057
:1004F00000211170016BE6E7F0BC704731B500F0E8
:100500005FF9009C0546601C00D0641C00F058F99F
:10051000401BA042FAD338BDF8B5054623480F4624
:10052000017E012601290BD0012101762868204C8B
:10053000012807D02046FFF783FE002813D030E0C3
:100540000220F8BD2046FFF77BFE002829D1FFF7E7
:1005500027FE2046FFF774FE06461648016904226E
:10056000914301611DE00020C04338606C6812E0D7
:100570002046FFF727FE0E48FFF762FE06460D48AD
:10058000026902218A430261002E01D03C6008E02A
:10059000012080022418A868810268680818A04217
:1005A000E6D80248002101763046F8BD80060020DA
:1005B00050C300000020024003480169802211431B
:1005C000016100207047000000200240F0B51FB418
:1005D00007461A480024017E15461E46012907D009
:1005E000012101761648FFF72BFE002803D020E0FA
:1005F000022005B0F0BD012F02D0022F00D0042749
:10060000220128463146FFF783FD81B2019862003E
:100610001018FFF7E9FD0A48FFF712FE09490A69B9
:10062000520852000A61002803D1641CE4B2BC42A3
:10063000E6D3024900220A76DBE7000080060020AC
:1006400050C300000020024005480169090605D595
:10065000044941600449416000207047012070470F
:100660000020024023016745AB89EFCDF8B5002398
:100670008DE001249C40A44622407DD04C68022C91
:1006800001D0122C0CD1DC08A40027183C6A5D07AD
:10069000ED0E0F26AE40B4430E69AE4026433E62D7
:1006A00005685E000324B4400F79A543BF07BF0F60
:1006B000B7402F4307604D68012D05D0022D03D0B0
:1006C000112D01D0122D0ED18568CF68A543B740FA
:1006D0002F43876047686546AF430D79ED06ED0F00
:1006E0009D403D434560C568A5438C68B4402C439C
:1006F000C4604C68E40049D5284CA56901263543FF
:10070000A561A4699D0834400094254CAD002F19C3
:10071000BC689D072E0F0F25B540AC430925ED069B
:10072000A84201D100250FE01E4DA84201D10125AC
:100730000AE01D4DA84201D1022505E01B4DA8424B
:1007400001D1032500E00525B5402543BD60184CC7
:1007500025684E689543F60300D515432560656806
:100760004E689543B60300D515436560A5684E688D
:100770009543F60202D500E008E01543A560E56860
:100780004E689543B60200D51543E5605B1C0A68C8
:100790001446DC4000D06CE7F8BD000000100240B9
:1007A000000001400004004800080048000C004818
:1007B00000040140002A01D08161704781627047C6
:1007C00001480068704700003C00002002480168B2
:1007D000491C0160704700003C00002010B506482D
:1007E0000168102211430160002000F007F800F0BA
:1007F00017F8002010BD00000020024010B504468C
:1008000000F0CEF87D21C900FFF76CFC00F0D2FAB1
:1008100000222146501E00F029F8002010BD0000E3
:1008200008B50C488169012211438161806910403B
:10083000002200901146501F00F018F800221146C7
:10084000901E00F013F800221146501E00F00EF822
:1008500008BD000000100240C106C90E01208840FA
:10086000014908607047000000E100E010B500F0A9
:1008700013FC10BDF8B5054644480E460068C00795
:10088000C00FB0420AD241480168490849003143CB
:1008900001600068C007C00FB0425CD128783C4CB2
:1008A000800705D56068F0218843A9680843606027
:1008B0002878C0073FD06868012813D02168022833
:1008C00013D08907002946DA616889088900014345
:1008D0006160FFF775FF6968074601290DD002299D
:1008E00017D024E021688903ECE78901EAE7FFF7E4
:1008F00067FFC11B2748814217D860680007800F37
:100900000128F4D117E0FFF75BFFC11B21488142AA
:100910000BD860680007800F0228F4D10BE0FFF7C6
:100920004FFFC11B1B48814201D90320F8BD6068FD
:100930000007800FF3D115480168C907C90FB142FC
:100940000BD9016849084900314301600068C007BC
:10095000C00FB04201D00120F8BD2878400706D56D
:100960006068072109028843E9680843606000F075
:100970002DF86168084A0906090F515CC84007490B
:1009800008600020FFF73AFF0020F8BD0020024079
:100990000010024088130000C01A00083800002030
:1009A00001480068704700003800002004480549ED
:1009B00000684968044A4905490F515CC8407047BE
:1009C0003800002000100240D01A000810B512A311
:1009D0000FCB88B06C460FC413A30FCB0FC41649BE
:1009E0004A680C20134603401448042B0FD0082BF0
:1009F0000DD193021B0F6C46E45CC96A04AB090776
:100A0000090F595CD20304D5FFF76CFB604308B0B3
:100A100010BD0B486043FAE7020304050607080906
:100A20000A0B0C0D0E0F1010010203040506070837
:100A3000090A0B0C0D0E0F100010024000127A0074
:100A400000093D00FEB504460078D04DC00747D0F0
:100A500068680007800F012807D068680007800FCA
:100A6000022809D16868C00306D52868800337D5F5
:100A7000606800287ED033E0012062680004012A0B
:100A800011D08100002A01D0052A10D02A688243A3
:100A90002A602868884328606068002814D0FFF71F
:100AA0008FFE06460CE0296801432960F4E72A68B6
:100AB0000A432A60F7E7FFF783FE801B64286FD89C
:100AC00028688003F7D50BE0FFF77AFE064604E0BE
:100AD000FFF776FE801B6428F1D828688003F7D4DE
:100AE00020780126800700283BDA68680007800F1D
:100AF00007D068680007800F022809D16868C00322
:100B000006D42868800715D5E068012832D111E0A5
:100B1000E0680028286815D030432860FFF750FEB1
:100B2000074604E0FFF74CFEC01B0228C7D8286820
:100B30008007F7D52868F82188432169C900084350
:100B400028600EE0400840002860FFF739FE0746A5
:100B500004E0FFF735FEC01B0228B0D828688007E4
:100B6000F7D42078000724D5E0690028686A10D0FF
:100B7000304300E008E16862FFF722FE074604E028
:100B8000FFF71EFEC01B022899D8686A8007F7D5B8
:100B90000FE0400840006862FFF712FE074605E0DC
:100BA0009DE0FFF70DFEC01B022888D8686A800709
:100BB000F7D4207804274007002860DA002001904D
:100BC000E869C00008D4E969B8060143E961E96948
:100BD00001400120009101906D480168C90511D4C0
:100BE0000168821511430160FFF7EAFD009005E0FE
:100BF000FFF7E6FD0099401A642870D86448006841
:100C0000C005F5D5A06801280AD0002801D0052824
:100C100010D0286A400840002862286AB84301E0E2
:100C2000286A30432862A068002812D0FFF7C8FD68
:100C300000900AE0286A38432862F1E7FFF7C0FD18
:100C40000099411A5348814249D8286A8007F5D54E
:100C50000DE0FFF7B5FD009006E0FFF7B1FD00994C
:100C6000411A4C4881423AD8286A8007F5D4019845
:100C7000002804D0E969012000078143E961207858
:100C8000C00635D5606901280CD0401D686B23D0A3
:100C900038436863686B400840006863FFF790FD65
:100CA000064622E0686B38436863686B30436863CC
:100CB000FFF786FD064604E0FFF782FD801B022851
:100CC0005BD8686B8007F7D5686BF8218843A1690A
:100CD000C900084368630BE0B8436863F4E74CE07D
:100CE000FFF76EFD801B022847D8686B8007F7D49A
:100CF000206A002846D069680907890F022943D075
:100D0000012636060228286805D0B0432860FFF780
:100D100057FD044633E0B0432860FFF751FD074616
:100D200004E0FFF74DFDC01B022826D8286880018B
:100D3000F7D4E86AE16A000900010843E862616AE1
:100D4000A06A084369683D22120491430843686021
:100D5000286830432860FFF733FD044604E0FFF7BE
:100D60002FFD001B022808D828688001F7D509E06C
:100D7000FFF726FD001B022801D90320FEBD2868CD
:100D80008001F5D40020FEBD0120FEBD0010024010
:100D900000700040881300000422044904280869F8
:100DA00002D09043086170471043FBE700E000E089
:100DB00070470000094910B5401E884201D9012042
:100DC00010BD074C60610321081F00F065F9002089
:100DD000A06107202061002010BD0000FFFFFF0080
:100DE00000E000E010B5FFF7E3FF10BD70B50400B0
:100DF00005D025466035687A002802D006E001203B
:100E000070BD00202872204600F026F82420687269
:100E100020680168490849000160204600F05AFA3C
:100E20000128EDD0606A002802D0204600F0E4F9E5
:100E3000206841680122D2029143416020688168A4
:100E400008229143816020680168012211430160FA
:100E5000204600F036FA70BD00B50068124987B030
:100E600088421ED11148C269012149040A43C26166
:100E7000C069084005900C200090022001900121DB
:100E8000032003900291049109206946C006FFF7F0
:100E9000EDFB002211461C20FFF7E8FC1C20FFF7A9
:100EA000DBFC07B000BD0000004400400010024021
:100EB00010B504000FD000F010F8E068802108435E
:100EC00021680860616820690843A16808432168B7
:100ED0004860002010BD012010BD7047C168006847
:100EE000016000207047FEE710B500F0A9FA0F4836
:100EF000417E012919D17D22C1695201914214D349
:100F00000021C1614176027E012A05D10176FFF7F9
:100F100023F90A20FFF7F2FABFF34F8F054904487F
:100F2000C860BFF34F8F00BFFDE710BD5002002027
:100F30000400FA0500ED00E00848002101701621C8
:100F400041736821417006480168402211430160E5
:100F5000016820221143016070470000500000200A
:100F60000044004010B50548FFF792F90449884253
:100F700001D1012010BD002010BD000000F40008C8
:100F80005555000008480168084A114001225207DF
:100F9000914207D14168064A51601160006880F3B0
:100FA0000888084770470000003000080000FE2F46
:100FB0003000002010B5114886B0826901210A4333
:100FC000826182690A40059243698A04134343613E
:100FD00040690B4C104005901820009000200191B2
:100FE0000290039069462046FFF740FB012218213A
:100FF0002046FFF7DFFB06B010BD000000100240E6
:101000000004004810B50D480B4901604B21C9018F
:10101000416000218160C16001618161C1610C2278
:10102000016242614162FFF7E1FE002803D04721DF
:1010300003A000F0FCFC10BD00440040B4060020FA
:101040002E2E2F5372632F75736172742E630000FE
:1010500008B50D48C269C1140A43C261C06908409D
:1010600000900B4809490160FF21813141607E21D8
:1010700081607F21C16000210161FFF719FF002815
:1010800000D0FEE708BD000000100240002C004028
:10109000A0060020704700008307FF22DB0E9A4065
:1010A0008907090E994000280BDA0007000F08385D
:1010B000830808489B001818C36993430B43C36116
:1010C0007047830804489B001B1818689043084326
:1010D0001860704700ED00E000E400E070477047E2
:1010E00010B5FFF773FBFFF77DFE002219211048B2
:1010F00000F00AFC19210E4800F07EFC0D4908881A
:10110000401C08800C48427E012A02D1C269521C50
:10111000C26148884B22401C80B2D2004880904275
:1011200000D94A8005480168491C016010BD0000D3
:101130005000002040000020500200202C00002021
:1011400010B590B0022000900120039010200024E0
:10115000049008946846FFF775FC002800D0FEE76D
:1011600007200C900D940E9400210F940CA8FFF70B
:1011700081FB002800D0FEE7FFF712FC7D21C900AB
:10118000FEF7B0FFFFF716FE0420FFF705FE002272
:101190001146501EFFF76AFB10B010BD13480168DE
:1011A0000122114301604168114A11404160016808
:1011B000104A1140016001680122920491430160CC
:1011C00041683F22120491434160C16A0909090143
:1011D000C162016BFF22143291430163416B4908E4
:1011E0004900416300218160704700000010024007
:1011F0000CB8FF08FFFFF6FE10B5818CC90707D0B9
:1012000001684A6801235B049A43836A1A434A606F
:10121000818C890707D501684A6801231B049A431A
:10122000C36A1A434A60818C490707D501684A6836
:1012300001239B049A43036B1A434A60818C09077C
:1012400007D501684A680123DB039A43436B1A43BD
:101250004A60818CC90607D50268916801231B0387
:101260009943836B19439160818C890607D5016886
:101270008A6801235B039A43C36B1A438A60818C9B
:10128000490612D503685A6801210905046C8A438E
:1012900022435A60026C8A4207D1026851680323D4
:1012A0005B059943436C19435160818C090607D54E
:1012B00001684A680123DB04806C9A4302434A6058
:1012C00010BD0021C166202260304272827201721C
:1012D00008467047F8B504462369A268E5691A43D1
:1012E000636910202B43002125681A432B680E46A2
:1012F0003E4F3B4013432B6023685A6803252D0360
:10130000AA43E5682A435A60236AA26925681A43FA
:10131000AB680B273F02BB431343AB60344A2568DD
:10132000954210D1334A126B9207920F0ED0012AC8
:1013300005D0022A05D0032A09D1022007E00420A3
:1013400005E0082003E02C4A954200D1002001224C
:10135000E369D203934224D100280CD002280DD097
:10136000042813D0082817D001260A0912010807FB
:10137000400F10432FE0FFF719FB09E061681F4A97
:1013800048088018FEF7AEFE81B2EEE7FFF71EFBBD
:10139000616840004A08F4E76168012248081204C5
:1013A000EFE7002808D0022809D004280BD008282D
:1013B00014D001263046F8BDFFF7F8FA05E0616861
:1013C0000F4A48080CE0FFF701FB61684A088018E3
:1013D000FEF788FE80B22168C860EBE761684808C4
:1013E0008018FEF77FFE80B2E860E3E7F369FFFF55
:1013F0000038014000100240004400400024F40086
:1014000000127A0010B50B4CE069800602D50A483C
:1014100000F0A8F9E069400606D5206A402108439B
:101420002062054800F090FA206A044908432062CF
:1014300010BD000000440040500000205F1B000071
:10144000F0B589B0002003909B48002400789B4FA2
:10145000002803D0984D01286FD02AE1387901285F
:10146000FBD10220FFF74AF8954E964DF0790128FE
:101470007ED0022813D031461431009103281FD0AA
:101480002E462036042839D01439052871D08028FA
:1014900070D00E4681286ED0F1286DD0C7E0687EEE
:1014A0000028FBD10220FFF729F88748E88200F0E6
:1014B00019F9814801210170B16841602C76F8E08A
:1014C000687E002870D1B0687B4E716888420CD16C
:1014D0007E4A904209D2AA8A530059187160D1B24B
:1014E000009AFEF7D7FE002805D0EC8200F0FAF84B
:1014F00001203070DDE07448E882F7E70220FEF753
:10150000FDFF002007900290707CB17C00020B1858
:101510006F4801936F490068096801274843FF0637
:10152000C11967485B008268D318994201D9BA4251
:1015300001D2EC8288E0002710E097E060488168E3
:1015400007980818FEF7A4FE0799891C07910399CC
:1015500009180391029941407F1C0291019887422A
:10156000ECD3F07C317D000208180002717D04E0AC
:1015700068E01AE026E04BE06CE00818B17D00025C
:101580000918F07D327E00021018039A80B2914251
:1015900007D10299884204D14B48E882012028767D
:1015A00052E0EC822C764FE041E00220FEF7A6FFED
:1015B00001266E764448EC61E88200F093F83E48DC
:1015C000067076E00220FEF799FF707CAA282ED1E3
:1015D000B07CAA282BD1F07CBB2828D1307DBB2839
:1015E00025D1707DB27D3B49000210180860F27D64
:1015F000337E374912029A180A6001218902884213
:1016000002D04900884294D1103AF02A1AD990E7C2
:101610000220FEF773FFB07BFF2808D1F07BEE2895
:1016200005D1307CDD2802D1707CCC2803D0224843
:1016300004703C713DE0297DB068009AFEF72AFEF7
:101640000028E4D120480FE000F04CF81A490120AE
:1016500008702EE00820F8730C20B0710220F071A1
:101660001D48886018485530E882EDE71B4E00227F
:1016700008213046FFF79EF80120FEF73FFF0F4993
:10168000FA790023891D0E4800F07CF91448C179CD
:10169000012902D0022901D00BE0AC60C4712C708A
:1016A0003C710120FEF72AFF012208213046FFF796
:1016B00081F8FF2009B0F0BD240000207004002054
:1016C00050000020500200205555000000F4000892
:1016D000180000201400002000300008000400481A
:1016E0007006002070B51C491C484A78827114238A
:1016F000C371EB2404720C7944728C7B8472CC7BB2
:10170000C4720C7C04734C7C44738C7C84730824FA
:10171000C4738C790474CC7944748C68250E8574F8
:10172000250CC574250A057544750D4CE48A250AF7
:101730008575C475212501246D019B1E05E00E19D8
:101740007619B6797240641CE4B2A342F7DC0276E3
:10175000497B417670BD00005000002070040020DD
:1017600050020020F8B5654989881124CDB2640182
:10177000212102194901157000234118CB70067808
:10178000002E41D18E78002E23D0012E3DD0022E86
:1017900041D0032E38D14E78761CF6B24E70B55437
:1017A000CB704D7893789D422ED3AB5C467BB34291
:1017B00054D1631EC318EB5C03739E46D37A8371C6
:1017C00000934F4B4F4E5C78B6780123B61EB4465B
:1017D0003AE00E79002E17D14678B54214D1002593
:1017E000461936196D1CADB27370192DF8D301244A
:1017F0008C704C701178A1548371C37183608373B2
:10180000C373037443748374F8BD02238B704B70ED
:1018100085709D54F8BD4C78641CE4B24C70C57062
:10182000A554C27880781018FF2802D08B704B70B6
:10183000F8BD03208870F8BDF71811267601BE198F
:10184000767874405B1C9BB22E4E9C45F4DCA6451A
:1018500002D1009B0C2B02D00A2D3ED04AE0137916
:101860000371537983739379C373D3790374137AB0
:101870004374537A8374937A4371157BC571537B98
:10188000947B1B021B19D47B1B021B19127C1B02AD
:101890009A18C31DFF330024FA3382609C82032D03
:1018A00016D1002210E01125B7186D017F19BD7CFB
:1018B0007F7C2D027D199F8A7F003F18BD829D8A03
:1018C0006D1C921C9D8292B24579AD1F9542EADC57
:1018D000012008718C70CC70F8BDD279022A09D130
:1018E000A64507D101220A7100228A70CA70F1212F
:1018F000C171F8BD00208870C870F8BD2044004058
:101900007002002050000020212310B55B01C01898
:101910008378002B05D00379002B02D1C3785B1CA0
:10192000C370C47800238C4202D3C37083700371E8
:10193000002A07D0C178914204D3C37083704370EA
:101940000121017110BD00003121490141188A793E
:10195000022A11D14A7A094B521CD2B24A72C018DB
:10196000105C074A1081487A0A7A904204D300201A
:10197000487288710120C87170470000250400007A
:1019800020440040F0B58C46312149014418A1792A
:10199000212601257601002919D1E179002925D1D7
:1019A000A571227200220CE0012B03D16146895CF3
:1019B00000290BD061468F5C81188919521C8F71E8
:1019C000D2B2217A9142EFD8012B00D12272A179B3
:1019D00001290BD165720021E1710222A2718219E5
:1019E0005171034940180349285C0881E079F0BD32
:1019F000250400002044004030B5312252018318F4
:101A000021249D79640100220019002D02D0DC7987
:101A1000002C08D0427144798C4203D342719A71F0
:101A20000220D87130BD4479641C4471F3E7FEE7AD
:101A300002E008C8121F08C1002AFAD17047704797
:101A4000002001E001C1121F002AFBD170470000F5
:101A5000FEF7FCFCFFF786FA002801D1FFF792FAA7
:101A6000FEF7BCFEFFF76CFBFFF7A4FAFFF7CAFA1C
:101A7000FFF762FAFFF7ECFA0B48002404800B4EE4
:101A80000B4F0C4DFFF730FA30880A2803D334800F
:101A90000948FFF723FA094839688142F2D3012047
:101AA0003C606876EEE70000420000204000002025
:101AB0002C00002050020020A0060020C0270900B2
:101AC00000000000000000000102030406070809EE
:101AD0000000000001020304F81A000800000020C2
:101AE00044000000301A00083C1B0008440000209D
:101AF0006C0B0000401A000800000000000000000D
:101B000000000000000000000000000000000000D5
:101B100000000000000000000000000000000000C5
:101B200000000000000000000000000000000000B5
:0C1B300000127A0000000000000000001D
:04000005080000B53A
:00000001FF
